{
  "contractName": "OrderBook",
  "abi": [
    {
      "inputs": [
        {
          "internalType": "address",
          "name": "_token1",
          "type": "address"
        },
        {
          "internalType": "address",
          "name": "_token2",
          "type": "address"
        }
      ],
      "stateMutability": "nonpayable",
      "type": "constructor"
    },
    {
      "anonymous": false,
      "inputs": [
        {
          "indexed": true,
          "internalType": "uint256",
          "name": "price",
          "type": "uint256"
        },
        {
          "indexed": false,
          "internalType": "uint256",
          "name": "quantity",
          "type": "uint256"
        },
        {
          "indexed": true,
          "internalType": "address",
          "name": "buyer",
          "type": "address"
        }
      ],
      "name": "BuyOrderPlaced",
      "type": "event"
    },
    {
      "anonymous": false,
      "inputs": [
        {
          "indexed": true,
          "internalType": "address",
          "name": "buyer",
          "type": "address"
        }
      ],
      "name": "CancelBuyOrder",
      "type": "event"
    },
    {
      "anonymous": false,
      "inputs": [
        {
          "indexed": true,
          "internalType": "address",
          "name": "seller",
          "type": "address"
        }
      ],
      "name": "CancelSellOrder",
      "type": "event"
    },
    {
      "anonymous": false,
      "inputs": [
        {
          "indexed": true,
          "internalType": "uint256",
          "name": "price",
          "type": "uint256"
        },
        {
          "indexed": false,
          "internalType": "uint256",
          "name": "quantity",
          "type": "uint256"
        },
        {
          "indexed": true,
          "internalType": "address",
          "name": "seller",
          "type": "address"
        }
      ],
      "name": "SellOrderPlaced",
      "type": "event"
    },
    {
      "inputs": [],
      "name": "buyCount",
      "outputs": [
        {
          "internalType": "uint256",
          "name": "",
          "type": "uint256"
        }
      ],
      "stateMutability": "view",
      "type": "function"
    },
    {
      "inputs": [],
      "name": "sellCount",
      "outputs": [
        {
          "internalType": "uint256",
          "name": "",
          "type": "uint256"
        }
      ],
      "stateMutability": "view",
      "type": "function"
    },
    {
      "inputs": [
        {
          "internalType": "uint256",
          "name": "_price",
          "type": "uint256"
        },
        {
          "internalType": "uint256",
          "name": "_quantity",
          "type": "uint256"
        }
      ],
      "name": "placeBuy",
      "outputs": [],
      "stateMutability": "nonpayable",
      "type": "function"
    },
    {
      "inputs": [],
      "name": "cancelBuy",
      "outputs": [],
      "stateMutability": "nonpayable",
      "type": "function"
    },
    {
      "inputs": [
        {
          "internalType": "uint256",
          "name": "_price",
          "type": "uint256"
        },
        {
          "internalType": "uint256",
          "name": "_quantity",
          "type": "uint256"
        }
      ],
      "name": "placeSell",
      "outputs": [],
      "stateMutability": "nonpayable",
      "type": "function"
    },
    {
      "inputs": [],
      "name": "cancelSell",
      "outputs": [],
      "stateMutability": "nonpayable",
      "type": "function"
    },
    {
      "inputs": [],
      "name": "getBuySide",
      "outputs": [
        {
          "internalType": "address[]",
          "name": "",
          "type": "address[]"
        },
        {
          "internalType": "uint256[]",
          "name": "",
          "type": "uint256[]"
        },
        {
          "internalType": "uint256[]",
          "name": "",
          "type": "uint256[]"
        }
      ],
      "stateMutability": "view",
      "type": "function"
    },
    {
      "inputs": [],
      "name": "getSellSide",
      "outputs": [
        {
          "internalType": "address[]",
          "name": "",
          "type": "address[]"
        },
        {
          "internalType": "uint256[]",
          "name": "",
          "type": "uint256[]"
        },
        {
          "internalType": "uint256[]",
          "name": "",
          "type": "uint256[]"
        }
      ],
      "stateMutability": "view",
      "type": "function"
    },
    {
      "inputs": [],
      "name": "getSpread",
      "outputs": [
        {
          "internalType": "uint256",
          "name": "",
          "type": "uint256"
        }
      ],
      "stateMutability": "view",
      "type": "function"
    }
  ],
  "bytecode": "0x60806040523480156200001157600080fd5b506040516200250c3803806200250c83398181016040528101906200003791906200022a565b816000806101000a81548173ffffffffffffffffffffffffffffffffffffffff021916908373ffffffffffffffffffffffffffffffffffffffff16021790555080600160006101000a81548173ffffffffffffffffffffffffffffffffffffffff021916908373ffffffffffffffffffffffffffffffffffffffff160217905550600160036000600173ffffffffffffffffffffffffffffffffffffffff1673ffffffffffffffffffffffffffffffffffffffff16815260200190815260200160002060006101000a81548173ffffffffffffffffffffffffffffffffffffffff021916908373ffffffffffffffffffffffffffffffffffffffff160217905550600160066000600173ffffffffffffffffffffffffffffffffffffffff1673ffffffffffffffffffffffffffffffffffffffff16815260200190815260200160002060006101000a81548173ffffffffffffffffffffffffffffffffffffffff021916908373ffffffffffffffffffffffffffffffffffffffff160217905550505062000271565b600080fd5b600073ffffffffffffffffffffffffffffffffffffffff82169050919050565b6000620001f282620001c5565b9050919050565b6200020481620001e5565b81146200021057600080fd5b50565b6000815190506200022481620001f9565b92915050565b60008060408385031215620002445762000243620001c0565b5b6000620002548582860162000213565b9250506020620002678582860162000213565b9150509250929050565b61228b80620002816000396000f3fe608060405234801561001057600080fd5b50600436106100935760003560e01c80637f008a0a116100665780637f008a0a14610110578063949092c21461011a578063a9b4be441461013a578063ca70307514610156578063fecd817c1461017457610093565b80630c6b6737146100985780630e07df0b146100b65780635d19dcf8146100d65780637b3cee60146100f2575b600080fd5b6100a061017e565b6040516100ad9190611c2f565b60405180910390f35b6100be610184565b6040516100cd93929190611df8565b60405180910390f35b6100f060048036038101906100eb9190611e75565b610449565b005b6100fa6107c4565b6040516101079190611c2f565b60405180910390f35b61011861093f565b005b610122610cb4565b60405161013193929190611df8565b60405180910390f35b610154600480360381019061014f9190611e75565b610f79565b005b61015e6112f6565b60405161016b9190611c2f565b60405180910390f35b61017c6112fc565b005b60075481565b6060806060600060045467ffffffffffffffff8111156101a7576101a6611eb5565b5b6040519080825280602002602001820160405280156101d55781602001602082028036833780820191505090505b509050600060045467ffffffffffffffff8111156101f6576101f5611eb5565b5b6040519080825280602002602001820160405280156102245781602001602082028036833780820191505090505b509050600060045467ffffffffffffffff81111561024557610244611eb5565b5b6040519080825280602002602001820160405280156102735781602001602082028036833780820191505090505b509050600060036000600173ffffffffffffffffffffffffffffffffffffffff1673ffffffffffffffffffffffffffffffffffffffff16815260200190815260200160002060009054906101000a900473ffffffffffffffffffffffffffffffffffffffff16905060005b845181101561043657818582815181106102fb576102fa611ee4565b5b602002602001019073ffffffffffffffffffffffffffffffffffffffff16908173ffffffffffffffffffffffffffffffffffffffff16815250506000600260008473ffffffffffffffffffffffffffffffffffffffff1673ffffffffffffffffffffffffffffffffffffffff168152602001908152602001600020905080600001548583815181106103905761038f611ee4565b5b60200260200101818152505080600101548483815181106103b4576103b3611ee4565b5b602002602001018181525050600360008473ffffffffffffffffffffffffffffffffffffffff1673ffffffffffffffffffffffffffffffffffffffff16815260200190815260200160002060009054906101000a900473ffffffffffffffffffffffffffffffffffffffff16925050808061042e90611f42565b9150506102de565b5083838396509650965050505050909192565b6000600260003373ffffffffffffffffffffffffffffffffffffffff1673ffffffffffffffffffffffffffffffffffffffff16815260200190815260200160002060020154146104ce576040517f08c379a00000000000000000000000000000000000000000000000000000000081526004016104c590611fe8565b60405180910390fd5b604051806060016040528083815260200182815260200142815250600260003373ffffffffffffffffffffffffffffffffffffffff1673ffffffffffffffffffffffffffffffffffffffff16815260200190815260200160002060008201518160000155602082015181600101556040820151816002015590505060006105548361166f565b90506000600360008373ffffffffffffffffffffffffffffffffffffffff1673ffffffffffffffffffffffffffffffffffffffff16815260200190815260200160002060009054906101000a900473ffffffffffffffffffffffffffffffffffffffff16905033600360008473ffffffffffffffffffffffffffffffffffffffff1673ffffffffffffffffffffffffffffffffffffffff16815260200190815260200160002060006101000a81548173ffffffffffffffffffffffffffffffffffffffff021916908373ffffffffffffffffffffffffffffffffffffffff16021790555080600360003373ffffffffffffffffffffffffffffffffffffffff1673ffffffffffffffffffffffffffffffffffffffff16815260200190815260200160002060006101000a81548173ffffffffffffffffffffffffffffffffffffffff021916908373ffffffffffffffffffffffffffffffffffffffff160217905550600460008154809291906106c990611f42565b919050555060008054906101000a900473ffffffffffffffffffffffffffffffffffffffff1673ffffffffffffffffffffffffffffffffffffffff166323b872dd3330866040518463ffffffff1660e01b815260040161072b93929190612017565b6020604051808303816000875af115801561074a573d6000803e3d6000fd5b505050506040513d601f19601f8201168201806040525081019061076e9190612086565b503373ffffffffffffffffffffffffffffffffffffffff16847f89b6a1645f23bb3cb10a8d5693e3bdde2682f6f7c0b254f8c6317ed02e6e7750856040516107b69190611c2f565b60405180910390a350505050565b6000806005600060066000600173ffffffffffffffffffffffffffffffffffffffff1673ffffffffffffffffffffffffffffffffffffffff16815260200190815260200160002060009054906101000a900473ffffffffffffffffffffffffffffffffffffffff1673ffffffffffffffffffffffffffffffffffffffff1673ffffffffffffffffffffffffffffffffffffffff16815260200190815260200160002060000154905060006002600060036000600173ffffffffffffffffffffffffffffffffffffffff1673ffffffffffffffffffffffffffffffffffffffff16815260200190815260200160002060009054906101000a900473ffffffffffffffffffffffffffffffffffffffff1673ffffffffffffffffffffffffffffffffffffffff1673ffffffffffffffffffffffffffffffffffffffff16815260200190815260200160002060000154905081811161092b57808261092691906120b3565b610938565b818161093791906120b3565b5b9250505090565b6000600560003373ffffffffffffffffffffffffffffffffffffffff1673ffffffffffffffffffffffffffffffffffffffff1681526020019081526020016000206002015414156109c5576040517f08c379a00000000000000000000000000000000000000000000000000000000081526004016109bc90612133565b60405180910390fd5b6000600560003373ffffffffffffffffffffffffffffffffffffffff1673ffffffffffffffffffffffffffffffffffffffff1681526020019081526020016000206001015490506000610a1733611764565b9050600660003373ffffffffffffffffffffffffffffffffffffffff1673ffffffffffffffffffffffffffffffffffffffff16815260200190815260200160002060009054906101000a900473ffffffffffffffffffffffffffffffffffffffff16600660008373ffffffffffffffffffffffffffffffffffffffff1673ffffffffffffffffffffffffffffffffffffffff16815260200190815260200160002060006101000a81548173ffffffffffffffffffffffffffffffffffffffff021916908373ffffffffffffffffffffffffffffffffffffffff160217905550600660003373ffffffffffffffffffffffffffffffffffffffff1673ffffffffffffffffffffffffffffffffffffffff16815260200190815260200160002060006101000a81549073ffffffffffffffffffffffffffffffffffffffff0219169055600560003373ffffffffffffffffffffffffffffffffffffffff1673ffffffffffffffffffffffffffffffffffffffff16815260200190815260200160002060008082016000905560018201600090556002820160009055505060076000815480929190610bc590612153565b9190505550600160009054906101000a900473ffffffffffffffffffffffffffffffffffffffff1673ffffffffffffffffffffffffffffffffffffffff166323b872dd3033856040518463ffffffff1660e01b8152600401610c2993929190612017565b6020604051808303816000875af1158015610c48573d6000803e3d6000fd5b505050506040513d601f19601f82011682018060405250810190610c6c9190612086565b503373ffffffffffffffffffffffffffffffffffffffff167fd72fd04c1f0f3dd2839fa078c4beeaabe5ef0b99fa16e668873e262e2ba475a260405160405180910390a25050565b6060806060600060075467ffffffffffffffff811115610cd757610cd6611eb5565b5b604051908082528060200260200182016040528015610d055781602001602082028036833780820191505090505b509050600060075467ffffffffffffffff811115610d2657610d25611eb5565b5b604051908082528060200260200182016040528015610d545781602001602082028036833780820191505090505b509050600060075467ffffffffffffffff811115610d7557610d74611eb5565b5b604051908082528060200260200182016040528015610da35781602001602082028036833780820191505090505b509050600060066000600173ffffffffffffffffffffffffffffffffffffffff1673ffffffffffffffffffffffffffffffffffffffff16815260200190815260200160002060009054906101000a900473ffffffffffffffffffffffffffffffffffffffff16905060005b8451811015610f665781858281518110610e2b57610e2a611ee4565b5b602002602001019073ffffffffffffffffffffffffffffffffffffffff16908173ffffffffffffffffffffffffffffffffffffffff16815250506000600560008473ffffffffffffffffffffffffffffffffffffffff1673ffffffffffffffffffffffffffffffffffffffff16815260200190815260200160002090508060000154858381518110610ec057610ebf611ee4565b5b6020026020010181815250508060010154848381518110610ee457610ee3611ee4565b5b602002602001018181525050600660008473ffffffffffffffffffffffffffffffffffffffff1673ffffffffffffffffffffffffffffffffffffffff16815260200190815260200160002060009054906101000a900473ffffffffffffffffffffffffffffffffffffffff169250508080610f5e90611f42565b915050610e0e565b5083838396509650965050505050909192565b6000600560003373ffffffffffffffffffffffffffffffffffffffff1673ffffffffffffffffffffffffffffffffffffffff1681526020019081526020016000206002015414610ffe576040517f08c379a0000000000000000000000000000000000000000000000000000000008152600401610ff5906121c9565b60405180910390fd5b604051806060016040528083815260200182815260200142815250600560003373ffffffffffffffffffffffffffffffffffffffff1673ffffffffffffffffffffffffffffffffffffffff168152602001908152602001600020600082015181600001556020820151816001015560408201518160020155905050600061108483611909565b90506000600660008373ffffffffffffffffffffffffffffffffffffffff1673ffffffffffffffffffffffffffffffffffffffff16815260200190815260200160002060009054906101000a900473ffffffffffffffffffffffffffffffffffffffff16905033600660008473ffffffffffffffffffffffffffffffffffffffff1673ffffffffffffffffffffffffffffffffffffffff16815260200190815260200160002060006101000a81548173ffffffffffffffffffffffffffffffffffffffff021916908373ffffffffffffffffffffffffffffffffffffffff16021790555080600660003373ffffffffffffffffffffffffffffffffffffffff1673ffffffffffffffffffffffffffffffffffffffff16815260200190815260200160002060006101000a81548173ffffffffffffffffffffffffffffffffffffffff021916908373ffffffffffffffffffffffffffffffffffffffff160217905550600760008154809291906111f990611f42565b9190505550600160009054906101000a900473ffffffffffffffffffffffffffffffffffffffff1673ffffffffffffffffffffffffffffffffffffffff166323b872dd3330866040518463ffffffff1660e01b815260040161125d93929190612017565b6020604051808303816000875af115801561127c573d6000803e3d6000fd5b505050506040513d601f19601f820116820180604052508101906112a09190612086565b503373ffffffffffffffffffffffffffffffffffffffff16847f7ffeafa3f52f6955d686c233ece4b42adb8cf4c8e4f4190a489b52e27a1d7c4d856040516112e89190611c2f565b60405180910390a350505050565b60045481565b6000600260003373ffffffffffffffffffffffffffffffffffffffff1673ffffffffffffffffffffffffffffffffffffffff168152602001908152602001600020600201541415611382576040517f08c379a000000000000000000000000000000000000000000000000000000000815260040161137990612235565b60405180910390fd5b6000600260003373ffffffffffffffffffffffffffffffffffffffff1673ffffffffffffffffffffffffffffffffffffffff16815260200190815260200160002060010154905060006113d433611764565b9050600360003373ffffffffffffffffffffffffffffffffffffffff1673ffffffffffffffffffffffffffffffffffffffff16815260200190815260200160002060009054906101000a900473ffffffffffffffffffffffffffffffffffffffff16600360008373ffffffffffffffffffffffffffffffffffffffff1673ffffffffffffffffffffffffffffffffffffffff16815260200190815260200160002060006101000a81548173ffffffffffffffffffffffffffffffffffffffff021916908373ffffffffffffffffffffffffffffffffffffffff160217905550600360003373ffffffffffffffffffffffffffffffffffffffff1673ffffffffffffffffffffffffffffffffffffffff16815260200190815260200160002060006101000a81549073ffffffffffffffffffffffffffffffffffffffff0219169055600260003373ffffffffffffffffffffffffffffffffffffffff1673ffffffffffffffffffffffffffffffffffffffff1681526020019081526020016000206000808201600090556001820160009055600282016000905550506004600081548092919061158290612153565b919050555060008054906101000a900473ffffffffffffffffffffffffffffffffffffffff1673ffffffffffffffffffffffffffffffffffffffff166323b872dd3033856040518463ffffffff1660e01b81526004016115e493929190612017565b6020604051808303816000875af1158015611603573d6000803e3d6000fd5b505050506040513d601f19601f820116820180604052508101906116279190612086565b503373ffffffffffffffffffffffffffffffffffffffff167f40a722cc05fdeaf68cfdd1182ed21c908bd55248a30fb25c43d3bca5f9eb66f560405160405180910390a25050565b600080600190505b60011561175d576116e88184600360008573ffffffffffffffffffffffffffffffffffffffff1673ffffffffffffffffffffffffffffffffffffffff16815260200190815260200160002060009054906101000a900473ffffffffffffffffffffffffffffffffffffffff166119fe565b156116f6578091505061175f565b600360008273ffffffffffffffffffffffffffffffffffffffff1673ffffffffffffffffffffffffffffffffffffffff16815260200190815260200160002060009054906101000a900473ffffffffffffffffffffffffffffffffffffffff169050611677565b505b919050565b600080600190505b600173ffffffffffffffffffffffffffffffffffffffff16600360008373ffffffffffffffffffffffffffffffffffffffff1673ffffffffffffffffffffffffffffffffffffffff16815260200190815260200160002060009054906101000a900473ffffffffffffffffffffffffffffffffffffffff1673ffffffffffffffffffffffffffffffffffffffff1614611902578273ffffffffffffffffffffffffffffffffffffffff16600360008373ffffffffffffffffffffffffffffffffffffffff1673ffffffffffffffffffffffffffffffffffffffff16815260200190815260200160002060009054906101000a900473ffffffffffffffffffffffffffffffffffffffff1673ffffffffffffffffffffffffffffffffffffffff16141561189b5780915050611904565b600360008273ffffffffffffffffffffffffffffffffffffffff1673ffffffffffffffffffffffffffffffffffffffff16815260200190815260200160002060009054906101000a900473ffffffffffffffffffffffffffffffffffffffff16905061176c565b505b919050565b600080600190505b6001156119f7576119828184600360008573ffffffffffffffffffffffffffffffffffffffff1673ffffffffffffffffffffffffffffffffffffffff16815260200190815260200160002060009054906101000a900473ffffffffffffffffffffffffffffffffffffffff16611b0a565b1561199057809150506119f9565b600360008273ffffffffffffffffffffffffffffffffffffffff1673ffffffffffffffffffffffffffffffffffffffff16815260200190815260200160002060009054906101000a900473ffffffffffffffffffffffffffffffffffffffff169050611911565b505b919050565b6000600173ffffffffffffffffffffffffffffffffffffffff168473ffffffffffffffffffffffffffffffffffffffff161480611a7d5750600260008573ffffffffffffffffffffffffffffffffffffffff1673ffffffffffffffffffffffffffffffffffffffff168152602001908152602001600020600001548311155b8015611b015750600173ffffffffffffffffffffffffffffffffffffffff168273ffffffffffffffffffffffffffffffffffffffff161480611b005750600260008373ffffffffffffffffffffffffffffffffffffffff1673ffffffffffffffffffffffffffffffffffffffff1681526020019081526020016000206000015483115b5b90509392505050565b6000600173ffffffffffffffffffffffffffffffffffffffff168473ffffffffffffffffffffffffffffffffffffffff161480611b895750600260008573ffffffffffffffffffffffffffffffffffffffff1673ffffffffffffffffffffffffffffffffffffffff168152602001908152602001600020600001548310155b8015611c0d5750600173ffffffffffffffffffffffffffffffffffffffff168273ffffffffffffffffffffffffffffffffffffffff161480611c0c5750600260008373ffffffffffffffffffffffffffffffffffffffff1673ffffffffffffffffffffffffffffffffffffffff1681526020019081526020016000206000015483105b5b90509392505050565b6000819050919050565b611c2981611c16565b82525050565b6000602082019050611c446000830184611c20565b92915050565b600081519050919050565b600082825260208201905092915050565b6000819050602082019050919050565b600073ffffffffffffffffffffffffffffffffffffffff82169050919050565b6000611ca182611c76565b9050919050565b611cb181611c96565b82525050565b6000611cc38383611ca8565b60208301905092915050565b6000602082019050919050565b6000611ce782611c4a565b611cf18185611c55565b9350611cfc83611c66565b8060005b83811015611d2d578151611d148882611cb7565b9750611d1f83611ccf565b925050600181019050611d00565b5085935050505092915050565b600081519050919050565b600082825260208201905092915050565b6000819050602082019050919050565b611d6f81611c16565b82525050565b6000611d818383611d66565b60208301905092915050565b6000602082019050919050565b6000611da582611d3a565b611daf8185611d45565b9350611dba83611d56565b8060005b83811015611deb578151611dd28882611d75565b9750611ddd83611d8d565b925050600181019050611dbe565b5085935050505092915050565b60006060820190508181036000830152611e128186611cdc565b90508181036020830152611e268185611d9a565b90508181036040830152611e3a8184611d9a565b9050949350505050565b600080fd5b611e5281611c16565b8114611e5d57600080fd5b50565b600081359050611e6f81611e49565b92915050565b60008060408385031215611e8c57611e8b611e44565b5b6000611e9a85828601611e60565b9250506020611eab85828601611e60565b9150509250929050565b7f4e487b7100000000000000000000000000000000000000000000000000000000600052604160045260246000fd5b7f4e487b7100000000000000000000000000000000000000000000000000000000600052603260045260246000fd5b7f4e487b7100000000000000000000000000000000000000000000000000000000600052601160045260246000fd5b6000611f4d82611c16565b91507fffffffffffffffffffffffffffffffffffffffffffffffffffffffffffffffff821415611f8057611f7f611f13565b5b600182019050919050565b600082825260208201905092915050565b7f46697273742064656c657465206578697374696e6720627579206f7264657200600082015250565b6000611fd2601f83611f8b565b9150611fdd82611f9c565b602082019050919050565b6000602082019050818103600083015261200181611fc5565b9050919050565b61201181611c96565b82525050565b600060608201905061202c6000830186612008565b6120396020830185612008565b6120466040830184611c20565b949350505050565b60008115159050919050565b6120638161204e565b811461206e57600080fd5b50565b6000815190506120808161205a565b92915050565b60006020828403121561209c5761209b611e44565b5b60006120aa84828501612071565b91505092915050565b60006120be82611c16565b91506120c983611c16565b9250828210156120dc576120db611f13565b5b828203905092915050565b7f53656c6c206f72646572206d75737420616c7265616479206578697374000000600082015250565b600061211d601d83611f8b565b9150612128826120e7565b602082019050919050565b6000602082019050818103600083015261214c81612110565b9050919050565b600061215e82611c16565b9150600082141561217257612171611f13565b5b600182039050919050565b7f46697273742064656c657465206578697374696e672073656c6c206f72646572600082015250565b60006121b3602083611f8b565b91506121be8261217d565b602082019050919050565b600060208201905081810360008301526121e2816121a6565b9050919050565b7f427579206f72646572206d75737420616c726561647920657869737400000000600082015250565b600061221f601c83611f8b565b915061222a826121e9565b602082019050919050565b6000602082019050818103600083015261224e81612212565b905091905056fea264697066735822122042d48d64c97fce26de31137a345f98de6b4a22449dfb233ce8e0d3d221237dea64736f6c634300080c0033",
  "immutableReferences": {},
  "source": "pragma solidity ^0.8.0;\r\n\r\nimport \"@openzeppelin/contracts/token/ERC20/IERC20.sol\";\r\n\r\ncontract OrderBookFactory {\r\n    uint256 public pairsSupported;\r\n    mapping(bytes32 => address) public orderbooks;\r\n\r\n    event NewPair(address indexed token1, address indexed token2);\r\n\r\n    function addPair(address _token1, address _token2) external {\r\n        require(_token1 != _token2, \"Tokens must be different\");\r\n\r\n        address token1;\r\n        address token2;\r\n\r\n        if (uint160(_token1) > uint160(_token2)) {\r\n            token1 = _token1;\r\n            token2 = _token2;\r\n        } else {\r\n            token1 = _token2;\r\n            token2 = _token1;\r\n        }\r\n\r\n        bytes32 identifier = keccak256(abi.encodePacked(token1, token2));\r\n        require(\r\n            orderbooks[identifier] == address(0),\r\n            \"Token pair already exists\"\r\n        );\r\n\r\n        orderbooks[identifier] = address(new OrderBook(token1, token2));\r\n        pairsSupported++;\r\n\r\n        emit NewPair(token1, token2);\r\n    }\r\n}\r\n\r\ncontract OrderBook {\r\n    IERC20 token1;\r\n    IERC20 token2;\r\n\r\n    struct Order {\r\n        uint256 price;\r\n        uint256 quantity;\r\n        uint256 date;\r\n    }\r\n\r\n    mapping(address => Order) buyOrders;\r\n    mapping(address => address) nextBuy;\r\n    uint256 public buyCount;\r\n\r\n    mapping(address => Order) sellOrders;\r\n    mapping(address => address) nextSell;\r\n    uint256 public sellCount;\r\n\r\n    address constant BUFFER = address(1);\r\n\r\n    event BuyOrderPlaced(\r\n        uint256 indexed price,\r\n        uint256 quantity,\r\n        address indexed buyer\r\n    );\r\n\r\n    event CancelBuyOrder(address indexed buyer);\r\n\r\n    event SellOrderPlaced(\r\n        uint256 indexed price,\r\n        uint256 quantity,\r\n        address indexed seller\r\n    );\r\n\r\n    event CancelSellOrder(address indexed seller);\r\n\r\n    constructor(address _token1, address _token2) {\r\n        token1 = IERC20(_token1);\r\n        token2 = IERC20(_token2);\r\n\r\n        nextBuy[BUFFER] = BUFFER;\r\n        nextSell[BUFFER] = BUFFER;\r\n    }\r\n\r\n    function _verifyIndexBuy(\r\n        address prev,\r\n        uint256 price,\r\n        address next\r\n    ) internal view returns (bool) {\r\n        return ((prev == BUFFER || price <= buyOrders[prev].price) &&\r\n            (next == BUFFER || price > buyOrders[next].price));\r\n    }\r\n\r\n    function _verifyIndexSell(\r\n        address prev,\r\n        uint256 price,\r\n        address next\r\n    ) internal view returns (bool) {\r\n        return ((prev == BUFFER || price >= buyOrders[prev].price) &&\r\n            (next == BUFFER || price < buyOrders[next].price));\r\n    }\r\n\r\n    function _findPrevBuy(uint256 price) internal view returns (address) {\r\n        address prev = BUFFER;\r\n        while (true) {\r\n            if (_verifyIndexBuy(prev, price, nextBuy[prev])) {\r\n                return prev;\r\n            }\r\n            prev = nextBuy[prev];\r\n        }\r\n    }\r\n\r\n    function _findPrevSell(uint256 price) internal view returns (address) {\r\n        address prev = BUFFER;\r\n        while (true) {\r\n            if (_verifyIndexSell(prev, price, nextBuy[prev])) {\r\n                return prev;\r\n            }\r\n            prev = nextBuy[prev];\r\n        }\r\n    }\r\n\r\n    function _getPrevious(address target) internal view returns (address) {\r\n        address current = BUFFER;\r\n        while (nextBuy[current] != BUFFER) {\r\n            if (nextBuy[current] == target) {\r\n                return current;\r\n            }\r\n            current = nextBuy[current];\r\n        }\r\n    }\r\n\r\n    function placeBuy(uint256 _price, uint256 _quantity) external {\r\n        require(\r\n            buyOrders[msg.sender].date == 0,\r\n            \"First delete existing buy order\"\r\n        );\r\n\r\n        buyOrders[msg.sender] = Order(_price, _quantity, block.timestamp);\r\n        address prev = _findPrevBuy(_price);\r\n        address temp = nextBuy[prev];\r\n        nextBuy[prev] = msg.sender;\r\n        nextBuy[msg.sender] = temp;\r\n        buyCount++;\r\n\r\n        token1.transferFrom(msg.sender, address(this), _quantity);\r\n\r\n        emit BuyOrderPlaced(_price, _quantity, msg.sender);\r\n    }\r\n\r\n    function cancelBuy() external {\r\n        require(\r\n            buyOrders[msg.sender].date != 0,\r\n            \"Buy order must already exist\"\r\n        );\r\n\r\n        uint256 quantity = buyOrders[msg.sender].quantity;\r\n        address prev = _getPrevious(msg.sender);\r\n        nextBuy[prev] = nextBuy[msg.sender];\r\n        delete nextBuy[msg.sender];\r\n        delete buyOrders[msg.sender];\r\n        buyCount--;\r\n\r\n        token1.transferFrom(address(this), msg.sender, quantity);\r\n\r\n        emit CancelBuyOrder(msg.sender);\r\n    }\r\n\r\n    function placeSell(uint256 _price, uint256 _quantity) external {\r\n        require(\r\n            sellOrders[msg.sender].date == 0,\r\n            \"First delete existing sell order\"\r\n        );\r\n\r\n        sellOrders[msg.sender] = Order(_price, _quantity, block.timestamp);\r\n        address prev = _findPrevSell(_price);\r\n        address temp = nextSell[prev];\r\n        nextSell[prev] = msg.sender;\r\n        nextSell[msg.sender] = temp;\r\n        sellCount++;\r\n\r\n        token2.transferFrom(msg.sender, address(this), _quantity);\r\n\r\n        emit SellOrderPlaced(_price, _quantity, msg.sender);\r\n    }\r\n\r\n    function cancelSell() external {\r\n        require(\r\n            sellOrders[msg.sender].date != 0,\r\n            \"Sell order must already exist\"\r\n        );\r\n\r\n        uint256 quantity = sellOrders[msg.sender].quantity;\r\n        address prev = _getPrevious(msg.sender);\r\n        nextSell[prev] = nextSell[msg.sender];\r\n        delete nextSell[msg.sender];\r\n        delete sellOrders[msg.sender];\r\n        sellCount--;\r\n\r\n        token2.transferFrom(address(this), msg.sender, quantity);\r\n\r\n        emit CancelSellOrder(msg.sender);\r\n    }\r\n\r\n    function getBuySide()\r\n        external\r\n        view\r\n        returns (\r\n            address[] memory,\r\n            uint256[] memory,\r\n            uint256[] memory\r\n        )\r\n    {\r\n        address[] memory addressTemp = new address[](buyCount);\r\n        uint256[] memory priceTemp = new uint256[](buyCount);\r\n        uint256[] memory quantityTemp = new uint256[](buyCount);\r\n\r\n        address current = nextBuy[BUFFER];\r\n        for (uint256 i = 0; i < addressTemp.length; i++) {\r\n            addressTemp[i] = current;\r\n            Order storage order = buyOrders[current];\r\n\r\n            priceTemp[i] = order.price;\r\n            quantityTemp[i] = order.quantity;\r\n\r\n            current = nextBuy[current];\r\n        }\r\n\r\n        return (addressTemp, priceTemp, quantityTemp);\r\n    }\r\n\r\n    function getSellSide()\r\n        external\r\n        view\r\n        returns (\r\n            address[] memory,\r\n            uint256[] memory,\r\n            uint256[] memory\r\n        )\r\n    {\r\n        address[] memory addressTemp = new address[](sellCount);\r\n        uint256[] memory priceTemp = new uint256[](sellCount);\r\n        uint256[] memory quantityTemp = new uint256[](sellCount);\r\n\r\n        address current = nextSell[BUFFER];\r\n        for (uint256 i = 0; i < addressTemp.length; i++) {\r\n            addressTemp[i] = current;\r\n            Order storage order = sellOrders[current];\r\n\r\n            priceTemp[i] = order.price;\r\n            quantityTemp[i] = order.quantity;\r\n\r\n            current = nextSell[current];\r\n        }\r\n\r\n        return (addressTemp, priceTemp, quantityTemp);\r\n    }\r\n\r\n    function getSpread() external view returns (uint256) {\r\n        uint256 bestSell = sellOrders[nextSell[BUFFER]].price;\r\n        uint256 bestBuy = buyOrders[nextBuy[BUFFER]].price;\r\n\r\n        return bestBuy > bestSell ? bestBuy - bestSell : bestSell - bestBuy;\r\n    }\r\n}\r\n",
  "sourcePath": "C:\\Users\\damiel\\practice\\rollaChallenge\\contracts\\OrderBook.sol",
  "compiler": {
    "name": "solc",
    "version": "0.8.12+commit.f00d7308.Emscripten.clang"
  },
  "schemaVersion": "3.4.6",
  "updatedAt": "2022-03-31T22:51:45.746Z",
  "devdoc": {
    "kind": "dev",
    "methods": {},
    "version": 1
  },
  "userdoc": {
    "kind": "user",
    "methods": {},
    "version": 1
  }
}